:1015060053746F7000543A00483A0020202020207F
:1015160020202020202020202020202020202000E5
:10152600252E3166003C2D2D007265733A006D3A0A
:0115360000B4
:10149C00016A00016101026B0000025F000004663A
:1014AC00000000000462000000000476427000009E
:1014BC00047240600000C189C18AC18BC18C015D7E
:0414CC0000015E00BD
:10158000C2961216531215DB1215C07F0A7E001286
:1015900015F5120BF712100EE56170F6120EF380BE
:0115A000F159
:100BF700E4F522E5616016C296D2B0D2B1E4F55FA2
:100C0700F5607BFF7A157906FDFF020CCEC2B0D2E4
:100C1700B17526007527007528627B007A00796612
:100C27001211A97BFF7A15790B7D01E4FF12155E7E
:100C37007BFF7A15790EE4FDFF12155EE56A7003F6
:100C4700020CD37BFF7A157911E4FD7F0212155E42
:100C57007BFF7A1579117D017F0212155E7526FFDC
:100C670075271575282685792C85782B85772A850C
:100C770076297B007A00796D1207E47B007A007988
:100C87006D7D017F0212155EE56A64017BFF7A15AF
:100C9700792B70047D018002E4FD7F0712155E75D4
:100CA70026FF75271575282685752C85742B857362
:100CB7002A8572297B007A00796D1207E47B007A16
:100CC70000796DE4FD7F0212155EC3227526FF755C
:100CD700271575282685692C85682B85672A8566DB
:100CE700297B007A00796D1207E47B007A00796D21
:100CF7007D017F0212155E7526FF7527157528265B
:100D070085652C85642B85632A8562297B007A009B
:100D1700796D1207E47B007A00796DE4FD7F02129A
:100D2700155E7BFF7A15792F7D017F0712155E7B94
:100D3700FF7A157934E4FD7F0712155E7B007A0090
:100D4700796DAF60AE5F1211048F22C3E522940361
:100D570074809480500CAF220522746D2FF8762092
:100D670080E9746D2522F8E4F6FB7A00796D7D0140
:100D77007F0C12155E7B007A00796DAF6CAE6B123B
:100D870011048F22C3E522940374809480500CAF22
:100D9700220522746D2FF8762080E9746D2522F8DC
:0E0DA700E4F6FB7A00796DFD7F0C12155ED329
:010DB500221B
:10100E00E4F52220A0227F14FE1215F530091BC232
:10101E00090561D3E5619401748094804003E4F581
:10102E00617F011216798002D20920A11E7F0A7EED
:10103E00001215F5300A16C20A056AD3E56A940243
:10104E00748094804007E4F56A8002D20A20A25090
:10105E007F0A7E001215F5300B48C20BE56A64015B
:10106E00701BAF79AE78AD77AC76FBFA7980783FAE
:10107E001200158F798E788D778C768025E56A64CF
:10108E0002701FAF75AE74AD73AC727BCD7ACC7936
:10109E00CC783D1200158F758E748D738C72800214
:1010AE00D20B20A34E7F0A7E001215F5300C46C2DD
:1010BE000CE56A6401701AAF79AE78AD77AC76FB49
:1010CE00FA798078BF1200158F798E788D778C76AD
:1010DE0022E56A6402701EAF75AE74AD73AC727B9E
:1010EE00CD7ACC79CC783D1200118F758E748D73BC
:0510FE008C7222D20CEF
:0111030022C9
:100EF300AB79AA78A977A876AF69AE68AD67AC6617
:100F0300120011E4FBFA798078BF12020C5009E455
:100F1300F55FF560D290801CAB69AA68A967A866E3
:100F2300AF79AE78AD77AC761200111202D48E5F32
:100F33008F60C290AF65AE64AD63AC62AB75AA74EB
:100F4300A973A87212020C600440028075AB65AAF3
:100F530064A963A862AF75AE74AD73AC721200116D
:100F6300E4FBFA79487843120106E4FBFAF9F81234
:100F7300020CAB65AA64A963A862AF75AE74AD73C6
:100F8300AC7250051200118006120011120285E4A2
:100F9300FBFA794878431201061202D48E6B8F6CE8
:100FA300D3E56C94C8E56B648094804008756B004E
:100FB300756CC88012C3E56C940AE56B64809480F9
:100FC3005005E4F56BF56CAB79AA78A977A876AFF1
:100FD30069AE68AD67AC66120011E4FBFA7920785C
:100FE3004112020C401FAB65AA64A963A862AF75E6
:100FF300AE74AD73AC72120011E4FBFA7980783FE2
:0B10030012020C5003D29622C296226B
:03000B00021420BC
:0D142000C0E0C0D075D000C000C006C007FD
:10142D00C28C055D055EAF5D7E00C3EF956CE56B0F
:10143D006480F87480985004D2B78002C2B7EF640C
:0E144D00C84E7002F55D758A9C758CFFD28CBE
:0B145B00D007D006D000D0D0D0E03287
:1015A1007580FFC2A7D2A6D2A5AF80C2A50526E548
:0E15B10026D39432748094805004EF20E7E932
:0115BF002209
:10167900AE071215A1C2A7C2A68E80D2A5C2A52205
:0616270014F9120597FF03
:10162D00AE071215A1D2A7C2A68E80D2A5C2A52241
:101653007F381216797F0C1216797F061216797F5E
:0416630001021679F1
:10166700AE07ED6005EE24C08001EE4480FF121640
:021677007922D6
:10155E008B238A248925121667AB23AA24A9251268
:10156E000597600D0525E5257002052412162780C6
:02157E00E82261
:0613D2008F088D098B0A53
:1013D800E4FDEDC39408748094805030E50A2440FD
:1013E800FFE433FEED2403FCEFA804088006CEA238
:1013F800E713CE13D8F8FF121679AB0B050DE50DE0
:10140800AA0C7002050C1216270D80C6AD09AF088C
:08141800121667AF0A02162D3F
:0A1104008E238F248B258A2689276D
:10110E00E4F528F529C3E52364809480501CC3E4DC
:10111E009524F524E49523F5230527E5277002058C
:10112E002614F9742D1205DD0529AE23AF247C009B
:10113E007D0A120611ED2430FFAE280528742A2EE2
:10114E00F8A607AE23AF247C007D0A1206118E236B
:10115E008F24D3E5249400E5236480948050CBE55E
:10116E00282529F529AF281528D3EF9400748094EB
:10117E0080401B742A2528F8E6FFAB250527E527B6
:10118E00AA267002052614F9EF1205DD80D7AB25CD
:0A119E00AA26A927E41205DDAF29F7
:0111A8002224
:06135B008B0E8A0F8910C1
:10136100EFC4540FFED3940974809480500EEE2480
:1013710030FD0510E5107014050F8010EE2437FDC7
:10138100AB0E0510E510AA0F7002050F14F9ED124E
:1013910005DDEF540FFED39409748094805012EE52
:1013A1002430FFAB0E0510E510AA0F7014050F8055
:1013B10010EE2437FFAB0E0510E510AA0F700205E1
:1013C1000F14F9EF1205DDAB0EAA0FA910E4020507
:0113D100DD3E
:1015C000D2B0D2B1C2B753890F438901758A9C75D5
:0B15D0008CFFC28DD2A9D2AFD28C22BA
:1015F500D3EF9401EE9400400F7D027CEFDCFEDD1D
:08160500FCEF1F70EB1E80E8F2
:01160D0022BA
:10163D00D3EF9401EE9400400C007D02DDFEEF1F10
:05164D0070EE1E80EBB1
:011652002275
:10146600E4FE7D80EDD39400748094804017ED5F98
:101476006004D2928002C292D293000000C293ED21
:10148600C313FD80DFD292D293A292E43300000010
:05149600C293D292FF99
:01149B00222E
:1014D100E4FED2927D80EDD394007480948040101C
:1014E100D293309203ED4206C293EDC313FD80E621
:1014F100EF24FFB39292D293000000C29300000048
:04150100D292AF06CD
:0115050022C3
:10160E00D292C29300D29300C29200C29300000005
:09161E00D29300D29200C2932283
:1015DB00D292C293E4FFEFC39409748094805007B6
:0A15EB00D293C2930F80EF02160E98
:0612D3008B338A348935DB
:1012D900E4F53AF53B12160EE53914600704701867
:1012E9007F0380027F05121466EF3395E0FEEF2538
:1012F9003BF53BEE353AF53A900000AF82AE83E418
:10130900FCFD7BFF7AFFF9F8D312065540063092AF
:1013190003A380E7309208053BE53B7002053A7F5D
:10132900011214D1AB33AA34A935EF1205DD7F01BF
:101339001214D1AB33AA34A935900001EF1205EF8D
:10134900E4FF1214D1AB36AA37A938EF1205DDAF85
:011359003B58
:01135A002270
:060DB6008B338A348935FD
:100DBC00E4F53CF53B753A807539C0754054753F88
:100DCC00E3753E25753D3D7544A27543E775423B81
:100DDC007541B675480A7547D775462375453C75F8
:100DEC004CAC754BC5754AA775493812066B8F50BC
:100DFC008E4F8D4E8C4DAB36AA37A93812066B8FA1
:100E0C00548E538D528C517F0A7ED77D237C3CAB04
:100E1C0054AA53A952A851120106E4FBFA7920787E
:100E2C00C21200158F5C8E5B8D5A8C59AF50AE4F31
:100E3C00AD4EAC4DAB44AA43A942A841120106AB3E
:100E4C0050AA4FA94EA84D120106C004C005C006F9
:100E5C00C007AF50AE4FAD4EAC4DAB40AA3FA93E14
:100E6C00A83D120106D003D002D001D0001200150B
:100E7C00AB3CAA3BA93AA8391200158F588E578D56
:100E8C00568C55E4FFFE7DC87C42AB58AA57A95638
:100E9C00A85512020C600D400BE4F558F557755629
:100EAC00C87555427FCD7ECC7DCC7C3DAB58AA57C6
:100EBC00A956A85512020C500C7558CD7557CC7507
:100ECC0056CC75553DAF5CAE5BAD5AAC59AB36AA42
:100EDC0037A93812068BAF58AE57AD56AC55AB335D
:070EEC00AA34A93502068BB0
:0611A9008B238A24892536
:1011AF00E4F529F53675370075382AF539FB7A00DD
:1011BF00792F1212D3EF2529F529753600753700CF
:1011CF0075382A7539017B007A00792B1212D3EF0B
:1011DF002529F52960030215DBAC2BAD2CE4120297
:1011EF009B8F2E8E2D8D2C8C2BAC2FAD30E41202BD
:1011FF009B8F328E318D308C2F7536007537007581
:10120F00382F7B007A00792B120DB6AF32AE31AD8D
:10121F0030AC2FAB23AA24A92512068B7466FFFED0
:10122F00FD7CBFAB2EAA2DA92CA82B120015AB2627
:07123F00AA27A92812068B63
:011246002285
:10000E00020340E86480F8E933E83360110460F0DD
:10001E00ED33EC337009E8FCE9FDEAFEEBFF220458
:10002E0060DED3EB9FEA9EE99DE8C2E78CF0C2F753
:10003E0095F0400CE8CCF8E9CDF9EACEFAEBCFFB1F
:10004E0012030B85D0F05804700320D5B3E804706A
:10005E00075002B2D502034A92D5EC0460F7E4CC05
:10006E00C0E0C398F8603B94186008400DD0E0FBE8
:10007E00020322E4FBFAC9FC8028E830E406E4C956
:10008E00FBE4CAFCE830E305E4C9CACBFCE854073C
:10009E006010F8C3E913F9EA13FAEB13FBEC13FC47
:1000AE00D8F130F52FC3E49CFCEF9BFFEE9AFEEDEA
:1000BE0099FDD0E0FBEF4E4D4C701222DB03020394
:1000CE0047EC2CFCEF33FFEE33FEED33FDED30E766
:1000DE00EB020322EF2BFFEE3AFEED39FDD0E0FBF3
:1000EE0050130BBB000302034AED13FDEE13FEEF9C
:0800FE0013FFEC13FC020322C6
:10010600EC4D6011E8497017ED33EC3304600DE4F3
:10011600FCFFFEFD22E933E8330470F802034012C7
:10012600030B58046009E4CC2481500628500902C8
:10013600034A284003020347C0E0EB4A7044B980F3
:1001460006D0E0FB020336EF4E701CBD8008EBFFC5
:10015600EAFEE9FD80EBE98DF0A4FEE5F00201EF91
:10016600E9CDF9EAFEEBFFEF89F0A4FCE5F0CE89D4
:10017600F0A42EFFE435F0CD89F0A42DFEE435F091
:100186008067EF4E7005BD80D780C3EF8BF0A4ACBF
:10019600F0EE8BF0A42CFCE435F0F8EF8AF0A42CFA
:1001A600E5F038FCE433CB8DF0A42CFCE5F03BF80D
:1001B600EE8AF0A42CFCE5F038F8E433CF89F0A4FD
:1001C6002CFCE5F038CF3400CE89F0A42FFFE5F003
:1001D6003EFEE433C98DF0A42EFEE5F039CD8AF05B
:1001E600A42FFFE5F03EFEE43DFD33D0E0FB5007D3
:1001F6000BBB000F02034AEC2CFCEF33FFEE33FE81
:06020600ED33FD020322AE
:10020C0074F8CC6480CCC86480C8F58204604FC399
:10021C00EB9FF5F0EA9E42F0E99D42F0E89C45F038
:10022C00603C501DE5825FFFE582D313CB5BCBF4C2
:10023C002B5582FB50280ABA002409B900200880EB
:10024C001DE5825BFBE582D313CF5FCFF4C3132F85
:10025C005582FF50090EBE00050DBD00010CC3EB0D
:10026C009FF5F0EA9E42F0E99D42F0E89C45F06073
:09027C0007CC4820E701B3EC2295
:10028500ED33EC33600A047003BD8004ECB2E7FC87
:010295002246
:1002960075F020800E75F010800575F0087D007EE3
:1002A600007F003392D530D503120647EC33401059
:1002B600EF33FFEE33FEED33FDEC33FCD5F0ED22EC
:0E02C600E5F0247EA2D513CC92E7CDCEFF2228
:1002D400EDD2E7CD33EC3392D524814006E4FFFE22
:1002E400FDFC22FCE4CFCECDCC24E0501174FF8081
:1002F400EDC3CC13CCCD13CDCE13CECF13CF04701E
:07030400F030D5DE020647D0
:10078800E53A2426F8E6053A227823300702782647
:10079800E475F0011206A50205972000EB7F2ED222
:1007A800008018EF540F2490D43440D4FF30040B49
:1007B800EF24BFB41A0050032461FFE53B60021523
:1007C8003B053EE53E7002053D30070D7823E47594
:1007D800F0011206A5EF0205DD0215377403D207F2
:1007E8008003E4C207F53A8B238A248925E4F53B84
:1007F800F53DF53EE53B60077F201207C380F575A0
:100808003CFFC201C200C202C203C205C206C2083E
:10081800120791FF700D3007057F001207D4AF3E15
:10082800AE3D22B4255FC2D5C204120791FF24D081
:10083800B40A00501A75F00A783B30D50508B6FF9F
:100848000106C6A426F620D5047002D20380D92456
:10085800CFB41A00EF5004C2E5D204020AC1D20193
:1008680080C6D20080C0D20280BCD2D580BAD20560
:1008780080B47F201207C32002077401B53B0040F3
:10088800F1120788FF1207C30207FCD208D20680BC
:1008980095120788FB120788FA120788F94A4B70E5
:1008A8000679B87A0B7BFF20022EE53B602A7E0092
:1008B8008E827583001205B060060EEE653C70F0FE
:1008C800C2D5EBC0E0EAC0E0E9C0E0EE120B21D0EF
:1008D800E0F9D0E0FAD0E0FB120597FF60AAEBC080
:1008E800E0EAC0E0E9C0E01207C3D0E02401F9D093
:1008F800E03400FAD0E0FBE53C0460DCD53CD9806C
:1009080087D20280A2120B0460F7E53C7001041242
:100918000355A93C600DE53C600914F53C120BAB8E
:10092800EF60F3EA30E702F404C3995077EAF4255C
:100938003C0430E701E404F53C800D120B0460C16F
:10094800EA053C253C120355EA7839F630E701E41C
:10095800253C04D53C0420050114120B21E4C0E019
:10096800120BAB7839E6601320E70714F61207ABD1
:10097800802204F6D0E014C0E07F001207ABE53C0B
:1009880060071207A2153C800B3005031207A2D09E
:10099800E00207FCD0E00480C5120B0460A0E53C2F
:1009A800041203557839EAF6E53C20050260010493
:0509B8002404120B21D4
:1009BD0074FF04C0E0120BAB1207ABE53C2005023F
:1009CD0060031207A2D0E0B53CE87F451207B57869
:1009DD0039E67F2B30E7047F2DF404C0E01207C306
:1009ED00D0E075F00A84C0F01207ACD0E01207AC6D
:1009FD000207FC791080027908C206C2088008D26D
:100A0D00D5790A8004790AC2D5E53C047002F53C1B
:100A1D00E4FAFDFEFF120788FC7B08200113120784
:100A2D0088FD7B1030000A120788FE120788FF7BB5
:100A3D0020EC3382D592D55013C3E43000069FFFCE
:100A4D00E49EFEE42001039DFDE49CFCE4CBF8C292
:100A5D0001EC700CCFCECDCCE824F8F870F38017F4
:100A6D00C3EF33FFEE33FEED33FDEC33FCEB33FB25
:100A7D00994002FB0FD8E9EB300105F8D0E0C448EE
:100A8D00B201C0E00AEC4D4E4F78207B0070C2EAF7
:100A9D00B53C0040BCC0E0120B23D0F0D0E02001EB
:100AAD0004C4C0E0C4B201C0F01207ACD0F0D5F060
:100ABD00EB0207FC1206B50899530A0058086A4C58
:100ACD000866420A044F0A0C440A0C49087F430A7F
:100ADD00125509434609A145090D470BD850086E1B
:100AED002D08722E08952B0876230893200BC12A0A
:100AFD00082E480000088DE53CB4FF03753C061236
:100B0D000788FC120788FD120788FE120788FF78F8
:100B1D0032020384790AA2D5200314300509B910D5
:100B2D00020404B9080104A2D520060250010420D4
:100B3D0002689202B53B005034C0E07F20300319AB
:100B4D007F30A20272067205500F120B7AC202C2DA
:100B5D0006C205C2087F30800F300503E9C0E012E0
:100B6D0007C3300503D0E0F9D0E0B53BCC30051715
:100B7D007F30B9100C1207C37F583004077F78807F
:100B8D0003B908031207C33002057F2D0207C37F87
:100B9D00202008F87F2B2006F322920280CF7F00C1
:100BAD00B4070050052432F8E6FF22286E756C6CF0
:100BBD002900D2011207883001F8C201783B30D5E7
:100BCD000108F602082E2D504349581207882403B8
:100BDD00B405004001E4900BD3931207B4743A129C
:0A0BED0007B4D203753B04020A00AE
:10030B00E9D2E7C933E833F892D5EDD2E7CD33EC38
:07031B0033FC5002B2D522B1
:10032200EC30E7100FBF000C0EBE00080DBD00043C
:100332000BEB6014A2D5EB13FCED92E7FD2274FFE8
:10034200FCFDFEFF22E480F8A2D574FF13FC7D8041
:03035200E480EF55
:10035500F920E72824F950037907E4F42402FB186F
:10036500DBFDE624FB5014E9600DE4F618E604F61F
:0F037500B40A08E4F6D9F57401F60A22C2D522BB
:10038400ED33EC3392D5FA602AB4FF33EDC2E77B48
:10039400FF60067A0379A9E4227A0379B220D504AE
:1003A4007A0379AD224E614E002B494E46002D4909
:1003B4004E4600E47A08F608DAFC7B00740722E86B
:1003C400C0E0ECC0E0EDC0E0EEC0E0EFC0E0EA75F4
:1003D400F010A4CAABF075F04DA42BFBE435F0FC8F
:1003E400EA2410FAEB34C5FBEC34D9FCEDC2E7FF88
:1003F40075F056A4F42411C5F0F434C58FF0A42A82
:10040400E5F03BE43CF620E714120557D0E0FFD0BA
:10041400E0FED0E0FDD0E0FC12048A8014F4041263
:100424000557D0E0FFD0E0FED0E0FDD0E0FC1201A3
:1004340006D0E0F8E6FAEDD2E7CD33EC332482FBC4
:10044400E4C3CF33CFCE33CECD33CD33DBF37B0711
:1004540075F00A846004F6081B0AE5F0F6088FF0CC
:10046400740AA4FFACF08EF0740AA42CFEACF05015
:10047400010C8DF0740AA42CFDE435F0F608DBDEE3
:03048400740722D8
:1004870002034AEC5D046005E85904700302034067
:1004970012030B580460F6EC4860F2EC7004FDFEA2
:1004A700FF22C860DB2481C85009C3986002500648
:1004B7000203479850CAF582E9294B4A7005AB8277
:1004C70002033675F0007C1A7880C3EF9BEE9AED35
:1004D70099400DC3EF9BFFEE9AFEED99FDE842F0C0
:1004E700DC23ACF0D0E0FFD0E0FED0E0FDAB822013
:1004F700E7101BEB60BAEC2CFCEF33FFEE33FEED9D
:1005070033FD020322E803F830E705C0F075F00079
:10051700EF2FFFEE33FEED33FD40B830E7C280AA80
:100527003F8000004120000042C80000447A0000DC
:10053700461C400047C35000497424004B1896805E
:100547004CBEBC205A0E1BCA6753C21C749DC5AE55
:10055700FB60065407601C2323120585EB543860A3
:1005670009120571120580120106ECF8EDF9EEFA91
:10057700EFCB22EB12058080F1543803241C900541
:1005870027FE93FC0EEE93FD0EEE930ECE93FF2205
:03000000021247A2
:0C124700787FE4F6D8FD75817902128EE4
:10059700BB010689828A83E0225002E722BBFE0262
:0905A700E32289828A83E4932295
:1005B000BB010CE58229F582E5833AF583E0225000
:1005C00006E92582F8E622BBFE06E92582F8E2224A
:0D05D000E58229F582E5833AF583E4932264
:1005DD00BB010689828A83F0225002F722BBFE01FD
:0205ED00F322F7
:1005EF00F8BB010DE58229F582E5833AF583E8F042
:1005FF00225006E92582C8F622BBFE05E92582C8EE
:02060F00F222D5
:10061100C2D5EC30E709B2D5E4C39DFDE49CFCEE04
:1006210030E715B2D5E4C39FFFE49EFE1206DBC39B
:10063100E49DFDE49CFC80031206DB30D507C3E496
:060641009FFFE49EFE2273
:0E064700C3E49FFFE49EFEE49DFDE49CFC22C4
:10065500EB9FF5F0EA9E42F0E99D42F0EC6480C81C
:0606650064809845F022BC
:10066B00BB010789828A8302073C5005E9F8020720
:10067B0030BBFE05E9F802074889828A83020754DA
:10068B00BB010789828A830207705005E9F80207CC
:0A069B0064BBFE05E9F802077C22AB
:1006A500FAE6FB0808E6F925F0F618E6CA3AF62256
:1006B500D083D082F8E4937012740193700DA3A3D4
:1006C50093F8740193F5828883E4737402936860E8
:0606D500EFA3A3A380DFE8
:10153700EFB40A07740D121542740A309811A8996E
:10154700B8130CC2983098FDA899C298B811F63014
:0715570099FDC299F59922EC
:10125300021580E493A3F8E493A34003F68001F21C
:1012630008DFF48029E493A3F85407240CC8C3339C
:10127300C4540F4420C8834004F456800146F6DF6B
:10128300E4800B010204081020408090149CE47E4B
:10129300019360BCA3FF543F30E509541FFEE49360
:1012A300A360010ECF54C025E060A840B8E493A327
:1012B300FAE493A3F8E493A3C8C582C8CAC583CA52
:1012C300F0A3C8C582C8CAC583CADFE9DEE780BE0A
:0114D000001B
:1006DB00BC000BBE0029EF8DF084FFADF022E4CC03
:1006EB00F875F008EF2FFFEE33FEEC33FCEE9DECCC
:1006FB00984005FCEE9DFE0FD5F0E9E4CEFD22ED12
:10070B00F8F5F0EE8420D21CFEADF075F008EF2F5B
:10071B00FFED33FD4007985006D5F0F222C398FD4C
:05072B000FD5F0EA22E9
:0C073000E6FC08E6FD08E6FE08E6FF22F5
:0C073C00E0FCA3E0FDA3E0FEA3E0FF2230
:0C074800E2FC08E2FD08E2FE08E2FF22ED
:10075400E493FC740193FD740293FE740393FF22EB
:0C076400ECF608EDF608EEF608EFF622C1
:0C077000ECF0A3EDF0A3EEF0A3EFF022FC
:0C077C00ECF208EDF208EEF208EFF222B9
:00000001FF
